{
  "_format": "hh-sol-artifact-1",
  "contractName": "NFT",
  "sourceName": "contracts/Nft.sol",
  "abi": [
    {
      "inputs": [],
      "stateMutability": "nonpayable",
      "type": "constructor"
    },
    {
      "anonymous": false,
      "inputs": [
        {
          "indexed": true,
          "internalType": "address",
          "name": "owner",
          "type": "address"
        },
        {
          "indexed": true,
          "internalType": "address",
          "name": "approved",
          "type": "address"
        },
        {
          "indexed": true,
          "internalType": "uint256",
          "name": "tokenId",
          "type": "uint256"
        }
      ],
      "name": "Approval",
      "type": "event"
    },
    {
      "anonymous": false,
      "inputs": [
        {
          "indexed": true,
          "internalType": "address",
          "name": "owner",
          "type": "address"
        },
        {
          "indexed": true,
          "internalType": "address",
          "name": "operator",
          "type": "address"
        },
        {
          "indexed": false,
          "internalType": "bool",
          "name": "approved",
          "type": "bool"
        }
      ],
      "name": "ApprovalForAll",
      "type": "event"
    },
    {
      "anonymous": false,
      "inputs": [
        {
          "indexed": true,
          "internalType": "address",
          "name": "from",
          "type": "address"
        },
        {
          "indexed": true,
          "internalType": "address",
          "name": "to",
          "type": "address"
        },
        {
          "indexed": true,
          "internalType": "uint256",
          "name": "tokenId",
          "type": "uint256"
        }
      ],
      "name": "Transfer",
      "type": "event"
    },
    {
      "anonymous": false,
      "inputs": [
        {
          "indexed": false,
          "internalType": "string",
          "name": "URI",
          "type": "string"
        }
      ],
      "name": "minted",
      "type": "event"
    },
    {
      "inputs": [
        {
          "internalType": "address",
          "name": "to",
          "type": "address"
        },
        {
          "internalType": "uint256",
          "name": "tokenId",
          "type": "uint256"
        }
      ],
      "name": "approve",
      "outputs": [],
      "stateMutability": "nonpayable",
      "type": "function"
    },
    {
      "inputs": [
        {
          "internalType": "address",
          "name": "owner",
          "type": "address"
        }
      ],
      "name": "balanceOf",
      "outputs": [
        {
          "internalType": "uint256",
          "name": "",
          "type": "uint256"
        }
      ],
      "stateMutability": "view",
      "type": "function"
    },
    {
      "inputs": [],
      "name": "counter",
      "outputs": [
        {
          "internalType": "uint256",
          "name": "",
          "type": "uint256"
        }
      ],
      "stateMutability": "view",
      "type": "function"
    },
    {
      "inputs": [
        {
          "internalType": "uint256",
          "name": "tokenId",
          "type": "uint256"
        }
      ],
      "name": "getApproved",
      "outputs": [
        {
          "internalType": "address",
          "name": "",
          "type": "address"
        }
      ],
      "stateMutability": "view",
      "type": "function"
    },
    {
      "inputs": [
        {
          "internalType": "address",
          "name": "owner",
          "type": "address"
        },
        {
          "internalType": "address",
          "name": "operator",
          "type": "address"
        }
      ],
      "name": "isApprovedForAll",
      "outputs": [
        {
          "internalType": "bool",
          "name": "",
          "type": "bool"
        }
      ],
      "stateMutability": "view",
      "type": "function"
    },
    {
      "inputs": [
        {
          "internalType": "string",
          "name": "tokenURI",
          "type": "string"
        }
      ],
      "name": "mintNft",
      "outputs": [
        {
          "internalType": "uint256",
          "name": "",
          "type": "uint256"
        }
      ],
      "stateMutability": "nonpayable",
      "type": "function"
    },
    {
      "inputs": [],
      "name": "name",
      "outputs": [
        {
          "internalType": "string",
          "name": "",
          "type": "string"
        }
      ],
      "stateMutability": "view",
      "type": "function"
    },
    {
      "inputs": [
        {
          "internalType": "uint256",
          "name": "tokenId",
          "type": "uint256"
        }
      ],
      "name": "ownerOf",
      "outputs": [
        {
          "internalType": "address",
          "name": "",
          "type": "address"
        }
      ],
      "stateMutability": "view",
      "type": "function"
    },
    {
      "inputs": [
        {
          "internalType": "address",
          "name": "from",
          "type": "address"
        },
        {
          "internalType": "address",
          "name": "to",
          "type": "address"
        },
        {
          "internalType": "uint256",
          "name": "tokenId",
          "type": "uint256"
        }
      ],
      "name": "safeTransferFrom",
      "outputs": [],
      "stateMutability": "nonpayable",
      "type": "function"
    },
    {
      "inputs": [
        {
          "internalType": "address",
          "name": "from",
          "type": "address"
        },
        {
          "internalType": "address",
          "name": "to",
          "type": "address"
        },
        {
          "internalType": "uint256",
          "name": "tokenId",
          "type": "uint256"
        },
        {
          "internalType": "bytes",
          "name": "_data",
          "type": "bytes"
        }
      ],
      "name": "safeTransferFrom",
      "outputs": [],
      "stateMutability": "nonpayable",
      "type": "function"
    },
    {
      "inputs": [
        {
          "internalType": "address",
          "name": "operator",
          "type": "address"
        },
        {
          "internalType": "bool",
          "name": "approved",
          "type": "bool"
        }
      ],
      "name": "setApprovalForAll",
      "outputs": [],
      "stateMutability": "nonpayable",
      "type": "function"
    },
    {
      "inputs": [],
      "name": "supply",
      "outputs": [
        {
          "internalType": "uint256",
          "name": "",
          "type": "uint256"
        }
      ],
      "stateMutability": "view",
      "type": "function"
    },
    {
      "inputs": [
        {
          "internalType": "bytes4",
          "name": "interfaceId",
          "type": "bytes4"
        }
      ],
      "name": "supportsInterface",
      "outputs": [
        {
          "internalType": "bool",
          "name": "",
          "type": "bool"
        }
      ],
      "stateMutability": "view",
      "type": "function"
    },
    {
      "inputs": [],
      "name": "symbol",
      "outputs": [
        {
          "internalType": "string",
          "name": "",
          "type": "string"
        }
      ],
      "stateMutability": "view",
      "type": "function"
    },
    {
      "inputs": [
        {
          "internalType": "uint256",
          "name": "tokenId",
          "type": "uint256"
        }
      ],
      "name": "tokenURI",
      "outputs": [
        {
          "internalType": "string",
          "name": "",
          "type": "string"
        }
      ],
      "stateMutability": "view",
      "type": "function"
    },
    {
      "inputs": [
        {
          "internalType": "address",
          "name": "from",
          "type": "address"
        },
        {
          "internalType": "address",
          "name": "to",
          "type": "address"
        },
        {
          "internalType": "uint256",
          "name": "tokenId",
          "type": "uint256"
        }
      ],
      "name": "transferFrom",
      "outputs": [],
      "stateMutability": "nonpayable",
      "type": "function"
    }
  ],
  "bytecode": "0x608060405260006008553480156200001657600080fd5b506040518060400160405280600381526020017f4e465400000000000000000000000000000000000000000000000000000000008152506040518060400160405280600381526020017f4e4654000000000000000000000000000000000000000000000000000000000081525081600090805190602001906200009b929190620000bd565b508060019080519060200190620000b4929190620000bd565b505050620001d2565b828054620000cb906200016d565b90600052602060002090601f016020900481019282620000ef57600085556200013b565b82601f106200010a57805160ff19168380011785556200013b565b828001600101855582156200013b579182015b828111156200013a5782518255916020019190600101906200011d565b5b5090506200014a91906200014e565b5090565b5b80821115620001695760008160009055506001016200014f565b5090565b600060028204905060018216806200018657607f821691505b602082108114156200019d576200019c620001a3565b5b50919050565b7f4e487b7100000000000000000000000000000000000000000000000000000000600052602260045260246000fd5b612c0d80620001e26000396000f3fe608060405234801561001057600080fd5b50600436106101005760003560e01c80636352211e11610097578063b88d4fde11610066578063b88d4fde146102ad578063c87b56dd146102c9578063da86f4a9146102f9578063e985e9c51461032957610100565b80636352211e1461021357806370a082311461024357806395d89b4114610273578063a22cb4651461029157610100565b8063095ea7b3116100d3578063095ea7b3146101a157806323b872dd146101bd57806342842e0e146101d957806361bc221a146101f557610100565b806301ffc9a714610105578063047fc9aa1461013557806306fdde0314610153578063081812fc14610171575b600080fd5b61011f600480360381019061011a9190611c79565b610359565b60405161012c91906120c0565b60405180910390f35b61013d61043b565b60405161014a91906122fd565b60405180910390f35b61015b610445565b60405161016891906120db565b60405180910390f35b61018b60048036038101906101869190611d0c565b6104d7565b6040516101989190612059565b60405180910390f35b6101bb60048036038101906101b69190611c3d565b61055c565b005b6101d760048036038101906101d29190611b37565b610674565b005b6101f360048036038101906101ee9190611b37565b6106d4565b005b6101fd6106f4565b60405161020a91906122fd565b60405180910390f35b61022d60048036038101906102289190611d0c565b6106fa565b60405161023a9190612059565b60405180910390f35b61025d60048036038101906102589190611ad2565b6107ac565b60405161026a91906122fd565b60405180910390f35b61027b610864565b60405161028891906120db565b60405180910390f35b6102ab60048036038101906102a69190611c01565b6108f6565b005b6102c760048036038101906102c29190611b86565b61090c565b005b6102e360048036038101906102de9190611d0c565b61096e565b6040516102f091906120db565b60405180910390f35b610313600480360381019061030e9190611ccb565b610ac0565b60405161032091906122fd565b60405180910390f35b610343600480360381019061033e9190611afb565b610b48565b60405161035091906120c0565b60405180910390f35b60007f80ac58cd000000000000000000000000000000000000000000000000000000007bffffffffffffffffffffffffffffffffffffffffffffffffffffffff1916827bffffffffffffffffffffffffffffffffffffffffffffffffffffffff1916148061042457507f5b5e139f000000000000000000000000000000000000000000000000000000007bffffffffffffffffffffffffffffffffffffffffffffffffffffffff1916827bffffffffffffffffffffffffffffffffffffffffffffffffffffffff1916145b80610434575061043382610bdc565b5b9050919050565b6000600854905090565b60606000805461045490612553565b80601f016020809104026020016040519081016040528092919081815260200182805461048090612553565b80156104cd5780601f106104a2576101008083540402835291602001916104cd565b820191906000526020600020905b8154815290600101906020018083116104b057829003601f168201915b5050505050905090565b60006104e282610c46565b610521576040517f08c379a00000000000000000000000000000000000000000000000000000000081526004016105189061225d565b60405180910390fd5b6004600083815260200190815260200160002060009054906101000a900473ffffffffffffffffffffffffffffffffffffffff169050919050565b6000610567826106fa565b90508073ffffffffffffffffffffffffffffffffffffffff168373ffffffffffffffffffffffffffffffffffffffff1614156105d8576040517f08c379a00000000000000000000000000000000000000000000000000000000081526004016105cf906122bd565b60405180910390fd5b8073ffffffffffffffffffffffffffffffffffffffff166105f7610cb2565b73ffffffffffffffffffffffffffffffffffffffff161480610626575061062581610620610cb2565b610b48565b5b610665576040517f08c379a000000000000000000000000000000000000000000000000000000000815260040161065c9061219d565b60405180910390fd5b61066f8383610cba565b505050565b61068561067f610cb2565b82610d73565b6106c4576040517f08c379a00000000000000000000000000000000000000000000000000000000081526004016106bb906122dd565b60405180910390fd5b6106cf838383610e51565b505050565b6106ef8383836040518060200160405280600081525061090c565b505050565b60085481565b6000806002600084815260200190815260200160002060009054906101000a900473ffffffffffffffffffffffffffffffffffffffff169050600073ffffffffffffffffffffffffffffffffffffffff168173ffffffffffffffffffffffffffffffffffffffff1614156107a3576040517f08c379a000000000000000000000000000000000000000000000000000000000815260040161079a906121dd565b60405180910390fd5b80915050919050565b60008073ffffffffffffffffffffffffffffffffffffffff168273ffffffffffffffffffffffffffffffffffffffff16141561081d576040517f08c379a0000000000000000000000000000000000000000000000000000000008152600401610814906121bd565b60405180910390fd5b600360008373ffffffffffffffffffffffffffffffffffffffff1673ffffffffffffffffffffffffffffffffffffffff168152602001908152602001600020549050919050565b60606001805461087390612553565b80601f016020809104026020016040519081016040528092919081815260200182805461089f90612553565b80156108ec5780601f106108c1576101008083540402835291602001916108ec565b820191906000526020600020905b8154815290600101906020018083116108cf57829003601f168201915b5050505050905090565b610908610901610cb2565b83836110ad565b5050565b61091d610917610cb2565b83610d73565b61095c576040517f08c379a0000000000000000000000000000000000000000000000000000000008152600401610953906122dd565b60405180910390fd5b6109688484848461121a565b50505050565b606061097982610c46565b6109b8576040517f08c379a00000000000000000000000000000000000000000000000000000000081526004016109af9061223d565b60405180910390fd5b60006006600084815260200190815260200160002080546109d890612553565b80601f0160208091040260200160405190810160405280929190818152602001828054610a0490612553565b8015610a515780601f10610a2657610100808354040283529160200191610a51565b820191906000526020600020905b815481529060010190602001808311610a3457829003601f168201915b505050505090506000610a62611276565b9050600081511415610a78578192505050610abb565b600082511115610aad578082604051602001610a95929190612035565b60405160208183030381529060405292505050610abb565b610ab68461128d565b925050505b919050565b6000610acc6007611334565b6000610ad8600761134a565b9050610ae43382611358565b610aee8184611526565b600160086000828254610b0191906123e2565b925050819055507f6a247daae08e78c9333586f5e18a655f2219e772e3bf55bd8b6344496987167783604051610b3791906120db565b60405180910390a180915050919050565b6000600560008473ffffffffffffffffffffffffffffffffffffffff1673ffffffffffffffffffffffffffffffffffffffff16815260200190815260200160002060008373ffffffffffffffffffffffffffffffffffffffff1673ffffffffffffffffffffffffffffffffffffffff16815260200190815260200160002060009054906101000a900460ff16905092915050565b60007f01ffc9a7000000000000000000000000000000000000000000000000000000007bffffffffffffffffffffffffffffffffffffffffffffffffffffffff1916827bffffffffffffffffffffffffffffffffffffffffffffffffffffffff1916149050919050565b60008073ffffffffffffffffffffffffffffffffffffffff166002600084815260200190815260200160002060009054906101000a900473ffffffffffffffffffffffffffffffffffffffff1673ffffffffffffffffffffffffffffffffffffffff1614159050919050565b600033905090565b816004600083815260200190815260200160002060006101000a81548173ffffffffffffffffffffffffffffffffffffffff021916908373ffffffffffffffffffffffffffffffffffffffff160217905550808273ffffffffffffffffffffffffffffffffffffffff16610d2d836106fa565b73ffffffffffffffffffffffffffffffffffffffff167f8c5be1e5ebec7d5bd14f71427d1e84f3dd0314c0f7b2291e5b200ac8c7c3b92560405160405180910390a45050565b6000610d7e82610c46565b610dbd576040517f08c379a0000000000000000000000000000000000000000000000000000000008152600401610db49061217d565b60405180910390fd5b6000610dc8836106fa565b90508073ffffffffffffffffffffffffffffffffffffffff168473ffffffffffffffffffffffffffffffffffffffff161480610e3757508373ffffffffffffffffffffffffffffffffffffffff16610e1f846104d7565b73ffffffffffffffffffffffffffffffffffffffff16145b80610e485750610e478185610b48565b5b91505092915050565b8273ffffffffffffffffffffffffffffffffffffffff16610e71826106fa565b73ffffffffffffffffffffffffffffffffffffffff1614610ec7576040517f08c379a0000000000000000000000000000000000000000000000000000000008152600401610ebe9061227d565b60405180910390fd5b600073ffffffffffffffffffffffffffffffffffffffff168273ffffffffffffffffffffffffffffffffffffffff161415610f37576040517f08c379a0000000000000000000000000000000000000000000000000000000008152600401610f2e9061213d565b60405180910390fd5b610f4283838361159a565b610f4d600082610cba565b6001600360008573ffffffffffffffffffffffffffffffffffffffff1673ffffffffffffffffffffffffffffffffffffffff1681526020019081526020016000206000828254610f9d9190612469565b925050819055506001600360008473ffffffffffffffffffffffffffffffffffffffff1673ffffffffffffffffffffffffffffffffffffffff1681526020019081526020016000206000828254610ff491906123e2565b92505081905550816002600083815260200190815260200160002060006101000a81548173ffffffffffffffffffffffffffffffffffffffff021916908373ffffffffffffffffffffffffffffffffffffffff160217905550808273ffffffffffffffffffffffffffffffffffffffff168473ffffffffffffffffffffffffffffffffffffffff167fddf252ad1be2c89b69c2b068fc378daa952ba7f163c4a11628f55a4df523b3ef60405160405180910390a4505050565b8173ffffffffffffffffffffffffffffffffffffffff168373ffffffffffffffffffffffffffffffffffffffff16141561111c576040517f08c379a00000000000000000000000000000000000000000000000000000000081526004016111139061215d565b60405180910390fd5b80600560008573ffffffffffffffffffffffffffffffffffffffff1673ffffffffffffffffffffffffffffffffffffffff16815260200190815260200160002060008473ffffffffffffffffffffffffffffffffffffffff1673ffffffffffffffffffffffffffffffffffffffff16815260200190815260200160002060006101000a81548160ff0219169083151502179055508173ffffffffffffffffffffffffffffffffffffffff168373ffffffffffffffffffffffffffffffffffffffff167f17307eab39ab6107e8899845ad3d59bd9653f200f220920489ca2b5937696c318360405161120d91906120c0565b60405180910390a3505050565b611225848484610e51565b6112318484848461159f565b611270576040517f08c379a0000000000000000000000000000000000000000000000000000000008152600401611267906120fd565b60405180910390fd5b50505050565b606060405180602001604052806000815250905090565b606061129882610c46565b6112d7576040517f08c379a00000000000000000000000000000000000000000000000000000000081526004016112ce9061229d565b60405180910390fd5b60006112e1611276565b90506000815111611301576040518060200160405280600081525061132c565b8061130b84611736565b60405160200161131c929190612035565b6040516020818303038152906040525b915050919050565b6001816000016000828254019250508190555050565b600081600001549050919050565b600073ffffffffffffffffffffffffffffffffffffffff168273ffffffffffffffffffffffffffffffffffffffff1614156113c8576040517f08c379a00000000000000000000000000000000000000000000000000000000081526004016113bf9061221d565b60405180910390fd5b6113d181610c46565b15611411576040517f08c379a00000000000000000000000000000000000000000000000000000000081526004016114089061211d565b60405180910390fd5b61141d6000838361159a565b6001600360008473ffffffffffffffffffffffffffffffffffffffff1673ffffffffffffffffffffffffffffffffffffffff168152602001908152602001600020600082825461146d91906123e2565b92505081905550816002600083815260200190815260200160002060006101000a81548173ffffffffffffffffffffffffffffffffffffffff021916908373ffffffffffffffffffffffffffffffffffffffff160217905550808273ffffffffffffffffffffffffffffffffffffffff16600073ffffffffffffffffffffffffffffffffffffffff167fddf252ad1be2c89b69c2b068fc378daa952ba7f163c4a11628f55a4df523b3ef60405160405180910390a45050565b61152f82610c46565b61156e576040517f08c379a0000000000000000000000000000000000000000000000000000000008152600401611565906121fd565b60405180910390fd5b806006600084815260200190815260200160002090805190602001906115959291906118f6565b505050565b505050565b60006115c08473ffffffffffffffffffffffffffffffffffffffff166118e3565b15611729578373ffffffffffffffffffffffffffffffffffffffff1663150b7a026115e9610cb2565b8786866040518563ffffffff1660e01b815260040161160b9493929190612074565b602060405180830381600087803b15801561162557600080fd5b505af192505050801561165657506040513d601f19601f820116820180604052508101906116539190611ca2565b60015b6116d9573d8060008114611686576040519150601f19603f3d011682016040523d82523d6000602084013e61168b565b606091505b506000815114156116d1576040517f08c379a00000000000000000000000000000000000000000000000000000000081526004016116c8906120fd565b60405180910390fd5b805181602001fd5b63150b7a0260e01b7bffffffffffffffffffffffffffffffffffffffffffffffffffffffff1916817bffffffffffffffffffffffffffffffffffffffffffffffffffffffff19161491505061172e565b600190505b949350505050565b6060600082141561177e576040518060400160405280600181526020017f300000000000000000000000000000000000000000000000000000000000000081525090506118de565b600082905060005b600082146117b0578080611799906125b6565b915050600a826117a99190612438565b9150611786565b60008167ffffffffffffffff8111156117f2577f4e487b7100000000000000000000000000000000000000000000000000000000600052604160045260246000fd5b6040519080825280601f01601f1916602001820160405280156118245781602001600182028036833780820191505090505b5090505b600085146118d75760018261183d9190612469565b9150600a8561184c91906125ff565b603061185891906123e2565b60f81b818381518110611894577f4e487b7100000000000000000000000000000000000000000000000000000000600052603260045260246000fd5b60200101907effffffffffffffffffffffffffffffffffffffffffffffffffffffffffffff1916908160001a905350600a856118d09190612438565b9450611828565b8093505050505b919050565b600080823b905060008111915050919050565b82805461190290612553565b90600052602060002090601f016020900481019282611924576000855561196b565b82601f1061193d57805160ff191683800117855561196b565b8280016001018555821561196b579182015b8281111561196a57825182559160200191906001019061194f565b5b509050611978919061197c565b5090565b5b8082111561199557600081600090555060010161197d565b5090565b60006119ac6119a78461233d565b612318565b9050828152602081018484840111156119c457600080fd5b6119cf848285612511565b509392505050565b60006119ea6119e58461236e565b612318565b905082815260208101848484011115611a0257600080fd5b611a0d848285612511565b509392505050565b600081359050611a2481612b7b565b92915050565b600081359050611a3981612b92565b92915050565b600081359050611a4e81612ba9565b92915050565b600081519050611a6381612ba9565b92915050565b600082601f830112611a7a57600080fd5b8135611a8a848260208601611999565b91505092915050565b600082601f830112611aa457600080fd5b8135611ab48482602086016119d7565b91505092915050565b600081359050611acc81612bc0565b92915050565b600060208284031215611ae457600080fd5b6000611af284828501611a15565b91505092915050565b60008060408385031215611b0e57600080fd5b6000611b1c85828601611a15565b9250506020611b2d85828601611a15565b9150509250929050565b600080600060608486031215611b4c57600080fd5b6000611b5a86828701611a15565b9350506020611b6b86828701611a15565b9250506040611b7c86828701611abd565b9150509250925092565b60008060008060808587031215611b9c57600080fd5b6000611baa87828801611a15565b9450506020611bbb87828801611a15565b9350506040611bcc87828801611abd565b925050606085013567ffffffffffffffff811115611be957600080fd5b611bf587828801611a69565b91505092959194509250565b60008060408385031215611c1457600080fd5b6000611c2285828601611a15565b9250506020611c3385828601611a2a565b9150509250929050565b60008060408385031215611c5057600080fd5b6000611c5e85828601611a15565b9250506020611c6f85828601611abd565b9150509250929050565b600060208284031215611c8b57600080fd5b6000611c9984828501611a3f565b91505092915050565b600060208284031215611cb457600080fd5b6000611cc284828501611a54565b91505092915050565b600060208284031215611cdd57600080fd5b600082013567ffffffffffffffff811115611cf757600080fd5b611d0384828501611a93565b91505092915050565b600060208284031215611d1e57600080fd5b6000611d2c84828501611abd565b91505092915050565b611d3e8161249d565b82525050565b611d4d816124af565b82525050565b6000611d5e8261239f565b611d6881856123b5565b9350611d78818560208601612520565b611d81816126ec565b840191505092915050565b6000611d97826123aa565b611da181856123c6565b9350611db1818560208601612520565b611dba816126ec565b840191505092915050565b6000611dd0826123aa565b611dda81856123d7565b9350611dea818560208601612520565b80840191505092915050565b6000611e036032836123c6565b9150611e0e826126fd565b604082019050919050565b6000611e26601c836123c6565b9150611e318261274c565b602082019050919050565b6000611e496024836123c6565b9150611e5482612775565b604082019050919050565b6000611e6c6019836123c6565b9150611e77826127c4565b602082019050919050565b6000611e8f602c836123c6565b9150611e9a826127ed565b604082019050919050565b6000611eb26038836123c6565b9150611ebd8261283c565b604082019050919050565b6000611ed5602a836123c6565b9150611ee08261288b565b604082019050919050565b6000611ef86029836123c6565b9150611f03826128da565b604082019050919050565b6000611f1b602e836123c6565b9150611f2682612929565b604082019050919050565b6000611f3e6020836123c6565b9150611f4982612978565b602082019050919050565b6000611f616031836123c6565b9150611f6c826129a1565b604082019050919050565b6000611f84602c836123c6565b9150611f8f826129f0565b604082019050919050565b6000611fa76029836123c6565b9150611fb282612a3f565b604082019050919050565b6000611fca602f836123c6565b9150611fd582612a8e565b604082019050919050565b6000611fed6021836123c6565b9150611ff882612add565b604082019050919050565b60006120106031836123c6565b915061201b82612b2c565b604082019050919050565b61202f81612507565b82525050565b60006120418285611dc5565b915061204d8284611dc5565b91508190509392505050565b600060208201905061206e6000830184611d35565b92915050565b60006080820190506120896000830187611d35565b6120966020830186611d35565b6120a36040830185612026565b81810360608301526120b58184611d53565b905095945050505050565b60006020820190506120d56000830184611d44565b92915050565b600060208201905081810360008301526120f58184611d8c565b905092915050565b6000602082019050818103600083015261211681611df6565b9050919050565b6000602082019050818103600083015261213681611e19565b9050919050565b6000602082019050818103600083015261215681611e3c565b9050919050565b6000602082019050818103600083015261217681611e5f565b9050919050565b6000602082019050818103600083015261219681611e82565b9050919050565b600060208201905081810360008301526121b681611ea5565b9050919050565b600060208201905081810360008301526121d681611ec8565b9050919050565b600060208201905081810360008301526121f681611eeb565b9050919050565b6000602082019050818103600083015261221681611f0e565b9050919050565b6000602082019050818103600083015261223681611f31565b9050919050565b6000602082019050818103600083015261225681611f54565b9050919050565b6000602082019050818103600083015261227681611f77565b9050919050565b6000602082019050818103600083015261229681611f9a565b9050919050565b600060208201905081810360008301526122b681611fbd565b9050919050565b600060208201905081810360008301526122d681611fe0565b9050919050565b600060208201905081810360008301526122f681612003565b9050919050565b60006020820190506123126000830184612026565b92915050565b6000612322612333565b905061232e8282612585565b919050565b6000604051905090565b600067ffffffffffffffff821115612358576123576126bd565b5b612361826126ec565b9050602081019050919050565b600067ffffffffffffffff821115612389576123886126bd565b5b612392826126ec565b9050602081019050919050565b600081519050919050565b600081519050919050565b600082825260208201905092915050565b600082825260208201905092915050565b600081905092915050565b60006123ed82612507565b91506123f883612507565b9250827fffffffffffffffffffffffffffffffffffffffffffffffffffffffffffffffff0382111561242d5761242c612630565b5b828201905092915050565b600061244382612507565b915061244e83612507565b92508261245e5761245d61265f565b5b828204905092915050565b600061247482612507565b915061247f83612507565b92508282101561249257612491612630565b5b828203905092915050565b60006124a8826124e7565b9050919050565b60008115159050919050565b60007fffffffff0000000000000000000000000000000000000000000000000000000082169050919050565b600073ffffffffffffffffffffffffffffffffffffffff82169050919050565b6000819050919050565b82818337600083830152505050565b60005b8381101561253e578082015181840152602081019050612523565b8381111561254d576000848401525b50505050565b6000600282049050600182168061256b57607f821691505b6020821081141561257f5761257e61268e565b5b50919050565b61258e826126ec565b810181811067ffffffffffffffff821117156125ad576125ac6126bd565b5b80604052505050565b60006125c182612507565b91507fffffffffffffffffffffffffffffffffffffffffffffffffffffffffffffffff8214156125f4576125f3612630565b5b600182019050919050565b600061260a82612507565b915061261583612507565b9250826126255761262461265f565b5b828206905092915050565b7f4e487b7100000000000000000000000000000000000000000000000000000000600052601160045260246000fd5b7f4e487b7100000000000000000000000000000000000000000000000000000000600052601260045260246000fd5b7f4e487b7100000000000000000000000000000000000000000000000000000000600052602260045260246000fd5b7f4e487b7100000000000000000000000000000000000000000000000000000000600052604160045260246000fd5b6000601f19601f8301169050919050565b7f4552433732313a207472616e7366657220746f206e6f6e20455243373231526560008201527f63656976657220696d706c656d656e7465720000000000000000000000000000602082015250565b7f4552433732313a20746f6b656e20616c7265616479206d696e74656400000000600082015250565b7f4552433732313a207472616e7366657220746f20746865207a65726f2061646460008201527f7265737300000000000000000000000000000000000000000000000000000000602082015250565b7f4552433732313a20617070726f766520746f2063616c6c657200000000000000600082015250565b7f4552433732313a206f70657261746f7220717565727920666f72206e6f6e657860008201527f697374656e7420746f6b656e0000000000000000000000000000000000000000602082015250565b7f4552433732313a20617070726f76652063616c6c6572206973206e6f74206f7760008201527f6e6572206e6f7220617070726f76656420666f7220616c6c0000000000000000602082015250565b7f4552433732313a2062616c616e636520717565727920666f7220746865207a6560008201527f726f206164647265737300000000000000000000000000000000000000000000602082015250565b7f4552433732313a206f776e657220717565727920666f72206e6f6e657869737460008201527f656e7420746f6b656e0000000000000000000000000000000000000000000000602082015250565b7f45524337323155524953746f726167653a2055524920736574206f66206e6f6e60008201527f6578697374656e7420746f6b656e000000000000000000000000000000000000602082015250565b7f4552433732313a206d696e7420746f20746865207a65726f2061646472657373600082015250565b7f45524337323155524953746f726167653a2055524920717565727920666f722060008201527f6e6f6e6578697374656e7420746f6b656e000000000000000000000000000000602082015250565b7f4552433732313a20617070726f76656420717565727920666f72206e6f6e657860008201527f697374656e7420746f6b656e0000000000000000000000000000000000000000602082015250565b7f4552433732313a207472616e73666572206f6620746f6b656e2074686174206960008201527f73206e6f74206f776e0000000000000000000000000000000000000000000000602082015250565b7f4552433732314d657461646174613a2055524920717565727920666f72206e6f60008201527f6e6578697374656e7420746f6b656e0000000000000000000000000000000000602082015250565b7f4552433732313a20617070726f76616c20746f2063757272656e74206f776e6560008201527f7200000000000000000000000000000000000000000000000000000000000000602082015250565b7f4552433732313a207472616e736665722063616c6c6572206973206e6f74206f60008201527f776e6572206e6f7220617070726f766564000000000000000000000000000000602082015250565b612b848161249d565b8114612b8f57600080fd5b50565b612b9b816124af565b8114612ba657600080fd5b50565b612bb2816124bb565b8114612bbd57600080fd5b50565b612bc981612507565b8114612bd457600080fd5b5056fea26469706673582212201772118224593c9428f232151c1516a44784089f7175943ea9a53ee73019597864736f6c63430008040033",
  "linkReferences": {},
  "deployedLinkReferences": {}
}